:020000040800F2
:10000000A0340020010100083D2400085922000806
:10001000392400086D0700081140000800000000A6
:10002000000000000000000000000000F93F000890
:10003000A107000800000000F53F0008FD3F000890
:100040001B0100081B0100081B0100081B01000820
:100050001B0100081B0100081B0100081B01000810
:100060001B0100081B0100081B0100081B01000800
:100070001B0100081B0100081B0100081B010008F0
:100080001B0100081B0100081B0100081B010008E0
:100090001B0100081B0100081B0100081B010008D0
:1000A0001B010008054000081B0100081B01000897
:1000B0001B0100081B0100081B0100081B010008B0
:1000C0001B0100081B0100081B0100081B010008A0
:1000D0001B0100081B0100081B0100081B01000890
:1000E0001B0100081B0100081B010008DFF80CD0F1
:1000F00000F044FA0048004735400008A0340020D2
:100100000648804706480047FEE7FEE7FEE7FEE7B1
:10011000FEE7FEE7FEE7FEE7FEE7FEE70140000838
:10012000ED000008D2B201E000F8012B491EFBD21D
:1001300070470022F6E710B513460A4604461946F2
:10014000FFF7F0FF204610BD80EA010210B502F073
:100150000043400022D04A001FD0010E01EB126183
:10016000C0F35600C2F3560240F4000042F400020D
:10017000A0FB022000047F39140400D0401C50EA88
:10018000124001D44000491EC2B20C0604EBD0104C
:10019000401C4008802A02D003E0002010BD20F05F
:1001A0000100002900DA0020184310BD2DE9FE4FA0
:1001B000804681EA0300C00F0C46009021F0004108
:1001C00023F00045B8EB0200A94105D24046214684
:1001D00090461C460B46024623F00040104347D091
:1001E000270DC7F30A00C3F30A510290401A019089
:1001F00040286BDAC3F3130040F4801B009892464A
:1002000020B10023D2EB030A63EB0B0B0198594694
:10021000C0F14002504600F0EBF806460D4650464D
:100220005946019A00F003F910EB080061410024DF
:1002300087EA115284EAE7731A4340D0009A62B306
:10024000019A012A4FEA075215DC001B61EB0201FB
:100250004FF0004202EA0752CDE90042001C41F58E
:10026000801132462B4600F03AF903B0BDE8F08F1A
:1002700040462146F9E7001B61EB0201001C41F5F5
:10028000801300185B412018A2F5001747EB03010B
:1002900040EAD570B6196D4111E06D084FEA360697
:1002A00045EAC0754FEA0752001B61EB0201001CD2
:1002B00041F5801149084FEA30000019514132469A
:1002C0002B4603B0BDE8F04F00F0FAB800980122C9
:1002D00040000023D0EB020263EBE073009821465C
:1002E0004FEAE074B8EB000061EB0401E9E783F04A
:1002F00000435BE781F0004158E70EB5C10F80EA8B
:10030000E0700844CA07002140F233438DE80E0034
:100310000A460B4600F0E3F803B000BD00F00042CF
:1003200020F00040C10DC0F3160040F400007F290A
:1003300001DA00207047962903DCC1F19601C8401C
:1003400001E096398840002AF4D04042704770B5E9
:10035000C1F30A5201F000450024C1F3130140F239
:10036000FF3341F480119A4201DA002070BD40F25F
:1003700033439A42A2F2334203DC524200F047F880
:1003800000E090402C43F1D0404270BD01F00043AA
:1003900030B421F0004150EA010206D00A0DA2F566
:1003A0006072C1F31301002A02DC30BC00207047E8
:1003B000440F44EAC104C100E01830BC00EBC25055
:1003C00000F047B830B50B4601460020202201243A
:1003D00009E021FA02F59D4205D303FA02F5491B13
:1003E00004FA02F52844151EA2F10102F1DC30BD29
:1003F000202A04DB203A00FA02F1002070479140E5
:10040000C2F1200320FA03F3194390407047202AD9
:1004100004DB203A21FA02F00021704721FA02F3AE
:10042000D040C2F120029140084319467047202A6B
:1004300006DBCB17203A41FA02F043EAE07306E00C
:1004400041FA02F3D040C2F120029140084319461C
:1004500070470029A8BF7047401C490008BF20F022
:100460000100704710B4B0FA80FC00FA0CF050EABA
:10047000010404BF10BC704749B1CCF1200421FA3B
:1004800004F411FA0CF118BF012121430843A3EB36
:100490000C01CB1D4FEA00614FEA102042BF002043
:1004A00010BC704700EBC35010440029A4BF10BC1F
:1004B0007047401C490008BF20F0010010BC704785
:1004C00010B5141E73F1000408DA401C41F100015C
:1004D00092185B411A4301D120F0010010BD2DE9B3
:1004E000F04D92469B4611B1B1FA81F202E0B0FAAA
:1004F00080F220329046FFF77BFF04460F4640EA29
:100500000A0041EA0B0153465A46084313D01146EC
:1005100053EA010019D0C8F140025046FFF777FFB7
:1005200005460E46504659464246FFF761FF0843CE
:1005300005D0012004E020463946BDE8F08D0020BA
:10054000054346EAE0762C4337430A986305E40AFC
:10055000A0EB08000022FD0A44EA47540A3002D505
:1005600000200146E9E7010510196941DDE9084568
:1005700000196941BDE8F04DA2E700001CB509482B
:100580000090094801900546009C06E0E06840F0B4
:10059000010394E8070098471034AC42F6D3FFF704
:1005A000A9FD0000C0540008E054000870B584B0F4
:1005B00004460020002501F043FF012C00F080805C
:1005C000002C40F09980012434200D214FF6FF7259
:1005D0000123009403F012FA37200C214FF6FF722A
:1005E00002230094022503F009FA3C200B214FF668
:1005F000FF720323009403F001FA43200A214FF60F
:10060000FF720423009403F0F9F94FF24000002632
:10061000CDE900041C200F211C222323029602F0A6
:1006200075FE4FF4F860CDE900041220192126224E
:100630001923029602F06AFE1C2019210A2248F6AC
:100640008033CDE9004602F0FDF81C2019214FF25D
:10065000C0720123009503F0D1F94FF4F840CDE9C1
:10066000000434200F2134222323029602F04EFE90
:100670001F20CDE900042A2019213E2219230296C9
:1006800002F044FE342019210A2240F25623CDE91B
:10069000004602F0D7F83420192147F61F42012303
:1006A000009503F0ABF94CF68010CDE90004092069
:1006B000052148222423029603F064FA3EE000BF9D
:1006C00040F214034FF6E07622A2C2F200030D209E
:1006D0000421CDE9005603F0A1FB40F20C034FF6D4
:1006E0001F061EA2C2F200030D201321CDE90065F2
:1006F00003F094FB22E000BF40F20C04C2F20004BD
:10070000002540F2037617A2092004212346CDE9F3
:10071000006503F083FB4DF20500022142F62C42F6
:1007200047F2F043CDE900410290C1F6B872C4F23D
:10073000370309201821039502F0EEFE40F24A002B
:10074000C2F200005021282204B0BDE8704001F040
:10075000F3B900BF48656C6C6F000000776F726C76
:10076000640000005061676533000000FEE7000090
:100770004EF6FC50CEF200000168C90148BF704738
:10078000016841F08071016041F20000CEF200008A
:1007900000214160016841F00101016070470000E3
:1007A00070470000EFF3108072B600BFFEE7000054
:1007B0002DE9F04F82B00E68002E00F0FD8041F26E
:1007C0000042C4F20102042340F2004E904208BFEE
:1007D00003234FF6FF7CC4F2010E00930024012393
:1007E000C1F2100C4FF0000A4FF000094BE000BFBF
:1007F00041F20002C4F20102009F904208BF0227AA
:1008000004F00C030F229A402BEA020207FA03F3CA
:100810004FEA9A051A4346F825204E6840F20C45E7
:10082000F202DEF8082054BF22EA080242EA080277
:10083000C4F20105CEF808202A68B30254BF22EAA8
:10084000080242EA08022A60B303DEF8042054BF1B
:1008500022EA080242EA0802F303CEF80420DEF896
:1008600000204FF0010354BF22EA080242EA0802C6
:10087000CEF800200E680AF1010A36FA0AF204F1F5
:10088000040400F0998003FA0AFB16EA0B08F1D081
:100890004E68664512DC122E56D8DFE806F0350B9E
:1008A0004D4955555555555555555555555555451C
:1008B000510000BFD1F80C9046E000BF4FF6FF7228
:1008C000C1F2210296420FDC0022C1F211029642CF
:1008D0001AD00022C1F21202964215D00022C1F2B3
:1008E0002102964210D02FE00022C1F2220296424D
:1008F0000AD00022C1F23102964205D00022C1F294
:100900003202964220D100BF8A684AB1012A14BF40
:10091000C0F814B0C0F810B04FF0080914E000BFE0
:100920004FF0040910E000BFCA6802F104090BE0AF
:100930004FF0000908E000BFCA6802F1080903E0AF
:10094000CA6802F10C0900BF02462646B8F5807F4E
:1009500024BF0432203E17680F25B54027EA05055D
:1009600009FA06F635431560CA79D2067FF582AFDB
:1009700041F21803C4F202031A68AEF57E7642F023
:1009800001021A601A6802F001020192019A2AF02B
:10099000030256F802B040F60002C4F2010290428F
:1009A00008D040F60042C4F2010290427FF420AF2A
:1009B000012725E7002723E702B0BDE8F08F0000FC
:1009C000002A08BF090401617047000042F69C40FC
:1009D000C2F200000068704740F2040042F69C41F9
:1009E000C2F20000C2F2000100780A6810440860F8
:1009F0007047000080B542F20000C4F202000168B6
:100A000041F010010160032000F08CF80F2000F08D
:100A100005F800F027F8002080BD000070B540F216
:100A20000406C2F2000640F220013278C2F2000150
:100A30004FF47A730968B3FBF2F20446B1FBF2F1AA
:100A4000084600F085FB0F2C4FF0010508D838B997
:100A50004FF0FF3021460022002500F037F8746087
:100A6000284670BD82B041F21800C4F2020001684D
:100A7000022241F001010160016801F001010191D0
:100A80000199416841F080514160406800F0805018
:100A9000009000980420C4F20100016862F31A611A
:100AA000016002B070470000002848BF704700F0A6
:100AB0001F01012202FA01F11C2202EAD0004EF2CB
:100AC0000012CEF2000281507047000010B54EF6C1
:100AD0000C5CCEF2000CDCF80030C3F3022E8EF07A
:100AE0000704042C28BF0424BEF103034FF0FF3E8B
:100AF0000EFA04F438BF0023A14399400EFA03F321
:100B00009A43114300F00F0200F160430901043AD7
:100B100003F564436244002848BF02F10C031970D6
:100B200010BD00004EF60C51CEF200010A684FF6DF
:100B3000FF031A4060F30A2242F0806040F0FD702B
:100B400008607047002804BF012070472DE9F0437A
:100B500081B042F20008C4F202080446D8F800004E
:100B60000D4600F0070088420CD2D8F8000020F0B3
:100B700007002843C8F80000D8F8000000F007007C
:100B8000A8426CD1206841F204098107C4F202092D
:100B900017D5410705D5D9F8001041F4E061C9F82F
:100BA0000010010705D5D9F8001041F46051C9F8CB
:100BB0000010D9F80010A26821F0F0011143C9F823
:100BC0000010C00742D1D8F8000000F00700A8428A
:100BD0000CD9D8F8000020F007002843C8F800001E
:100BE000D8F8000000F00700A84238D1206841077B
:100BF00007D5D9F80010E26821F4E0611143C9F883
:100C00000010000708D5D9F80000216920F46050D1
:100C100040EAC100C9F80000D9F8002002F00C0039
:100C2000082841F20020C0F27A004DD145F29233FB
:100C3000C2F38341C0F60003595CD20338D440F6B6
:100C40000010C0F23D0048433EE000BF606859F824
:100C5000041C022808D0012826D1890306D40120CB
:100C600001B0BDE8F08300BF8901F8D5D9F80010C4
:100C700021F003010843C9F80000FFF7A7FE06466C
:100C800041F28837D9F80000616800F00C00B0EB41
:100C9000810F98D0FFF79AFE801BB842F2D903204B
:100CA00001B0BDE8F08300BF8907D8D5DEE700BFFB
:100CB000D9F8002045F29033C2F34042C0F6000359
:100CC0009A5C4843B0FBF2F0D9F8001044F22432A9
:100CD000C1F30311C0F60002515C40F2200220FA79
:100CE00001F140F20800C2F200000068C2F2000206
:100CF0001160FFF793FE002001B0BDE8F083000013
:100D000040F2200041F20401C2F20000C4F20201EC
:100D10000068096844F23432C1F30221C0F60002CF
:100D2000515CC8407047000040F2200041F20401CD
:100D3000C2F20000C4F202010068096844F23432D1
:100D4000C1F3C221C0F60002515CC84070470000E8
:100D5000002804BF012070472DE9F04182B004460D
:100D6000007841F20006C007C4F202060CD0706899
:100D700000F00C00042840F081803068800303D527
:100D80006068002800F04681207880071BD57068D5
:100D900010F00C0F09D0706800F00C00082840F02B
:100DA00087807068C00300F183803068800703D5B6
:100DB0002069012840F02E813068616920F0F80038
:100DC00040EAC10030602078000713D42078400743
:100DD0002CD4E569002D00F01881706800F00C003B
:100DE000082840F0A780012D40F00481012002B0C6
:100DF000BDE8F081A069002800F084800020C4F2E2
:100E000042200121C0F88014FFF7E0FD054600BF35
:100E1000706A800700F1B280FFF7D8FD401B0228FE
:100E2000F6D9032002B0BDE8F08100BFF0695FEAA7
:100E3000C00808D4F06940F08050F061F06900F01B
:100E400080500090009847F20007C4F2000738680D
:100E5000C00549D4386840F480703860FFF7B6FDAB
:100E6000054600BF3868C0053ED4FFF7AFFD401B04
:100E70006428F7D9032002B0BDE8F081706800F063
:100E80000C00082803D17068C0033FF576AF616895
:100E90003068002900F00C81B1F5A02F00F000812E
:100EA000B1F5803F40F01A8140F480301CE100BF72
:100EB0002069002840F20000C4F2422000F088803F
:100EC00001210160FFF782FD054600BF3068800701
:100ED0003FF572AFFFF77AFD401B0228F6D90320D9
:100EE00002B0BDE8F08100BFE168306A002900F07F
:100EF0009D80052900F09280012940F0AF8040F0EC
:100F00000100B1E00020C4F242200021C0F88014AA
:100F1000FFF75CFD054600BF706A80077FF556AF9E
:100F2000FFF754FD401B0228F6D9032002B0BDE8AC
:100F3000F08100BF0027C4F2422700203866FFF787
:100F400045FD022D05460DD13068800140F1DE805F
:100F5000FFF73CFD401B02284FF00300F4D902B01C
:100F6000BDE8F081306880014FD5FFF72FFD401BB1
:100F700002284FF00300F5D9F1E700BF40F220004E
:100F8000C2F20000006844F6D351C1F26201A0FB36
:100F90000101480A019000BF00BF0198411E0028CE
:100FA00001913FF413AF00BF0198411E0028019149
:100FB0003FF40CAF00BF0198411E002801913FF49F
:100FC00005AF00BF0198411E00280191E4D1FDE664
:100FD00000210160FFF7FAFC054600BF306880077A
:100FE0007FF5F1AEFFF7F2FC401B02284FF0030043
:100FF000F4D9B4E77068216A00F480328A4209D1DA
:10100000616A00F47010884204D1002002B0BDE88B
:10101000F08100BF012002B0BDE8F08140F0040083
:101020003062306A40F001001EE000BF20F0010095
:101030003062306A20F004003062FFF7C7FC0546DA
:1010400041F28837306A800720D5FFF7BFFC401B8C
:10105000B8424FF00300F5D981E700BF20F001004E
:101060003062306A20F004003062FFF7AFFC0546C2
:1010700041F28837306A800708D4FFF7A7FC401B8D
:10108000B842F7D9032002B0BDE8F081B8F1000FF3
:101090003FF59FAEF06920F08050F06199E600BF07
:1010A00040F480203060306840F480301CE000BFA5
:1010B00020F480303060306820F480203060FFF70A
:1010C00085FC0546306880037FF55EAEFFF77EFC49
:1010D000401B64284FF00300F4D940E720F480302F
:1010E0003060306820F480203060FFF76FFC0546E8
:1010F000306880033FF548AEFFF768FC401B64286A
:10110000F6D9032002B0BDE8F08100BF206AB0F537
:10111000803F05D17168A26821F4003111437160EC
:101120007168626A21F474111143084370600120F0
:101130003866FFF74BFC0446306880013FF565AF29
:10114000FFF744FC001B02284FF00300F4D906E728
:10115000411E0020B0EB116F1CBF012070474EF202
:101160001002CEF2000251604EF62351CEF2000181
:10117000F0230B70072190601160704770470000EA
:101180007047000090F83C20012A4FF0020236D050
:1011900010B580F83D200268D2F804E0D2F808C00B
:1011A0000C682EF07003234340F2FF74C4F2000475
:1011B000A24253600ADCB2F1804F13D040F20043E8
:1011C000C4F200039A420DD011E000BF42F6004382
:1011D000C4F201039A4205D040F60003C4F20003B2
:1011E0009A4204D149682CF080031943916001218F
:1011F000002280F83D1080F83C20BDE810401046E9
:1012000070470000002804BF0120704710B590F817
:101210003D1031B9002180F83C10044600F068F818
:101220002046022180F83D10016840F2FF740B68EF
:10123000C4F2000442F6004CA142C4F2010C15DCD9
:10124000B1F1804F1AD040F20042C4F20002914244
:1012500014D0A14218DCB1F1804F1DD040F2004201
:10126000C4F20002914217D01AE000BF614505D0D8
:1012700040F60002C4F200029142EAD1826823F0F3
:1012800070031343A142E6DD614505D040F600023C
:10129000C4F20002914203D1026923F44073134364
:1012A000846923F08002D0F804E0C36822436145DA
:1012B0000A60CB62C1F828E002D14269CCF8302044
:1012C00001224A6180F8462080F83E2080F83F20C5
:1012D00080F8402080F8412080F8422080F84320A8
:1012E00080F8442080F8452080F83D20002010BD83
:1012F000006842F60041C4F20101884218BF7047FD
:1013000080B582B041F21800C4F2020001680022E8
:1013100041F4006101600068002100F40060019068
:1013200001981920FFF7D2FB192002B0BDE88040D8
:10133000FFF7BABB90F83D1001291CBF0120704790
:10134000022180F83D10006840F2FF72C168C4F2CB
:101350000002904241F00101C16009DCB0F1804F10
:1013600012D040F20041C4F2000188420CD012E0D9
:1013700042F60041C4F20101884205D040F6000166
:10138000C4F20001884206D1816801F007010629F4
:1013900004BF00207047016841F001010160002096
:1013A0007047000090F83C20012A4FF002026CD0F8
:1013B00080B580F83D20D0F800C04FF67772DCF899
:1013C000083023EA0202CCF808200B684F2B29DCF6
:1013D0001F2B45DD202B46D0302B44D0402B40F036
:1013E000AF80D1F804E0C968DCF82030DCF82020B8
:1013F00022F00102CCF82020DCF8182022F0F002C4
:1014000042EA011123F00A0242EA0E02CCF8181057
:10141000CCF82020DCF8081041F0470121F0300121
:1014200028E000BF6F2B33DDB3F5005F74D0B3F558
:10143000805F21D0702B40F08380D1E901E3C9683F
:10144000DCF8082043EA0E0322F47F4243EA01213C
:101450001143CCF80810DCF8081041F0770109E0DE
:101460000BB1102B6CD1DCF8081021F0700119437E
:1014700041F00701CCF808100022012180F83D104E
:10148000002180F83C10BDE880401046704700BF46
:10149000502B21D0602B53D1D1F804E0C968DCF87F
:1014A0002030DCF8202022F01002CCF82020DCF8DC
:1014B000182022F4704242EA013123F0A00242EAED
:1014C0000E12CCF81810CCF82020DCF8081041F0EF
:1014D000670121F01001CDE7D1F804E0C968DCF81C
:1014E0002030DCF8202022F00102CCF82020DCF8AB
:1014F000182022F0F00242EA011123F00A0242EA27
:101500000E02CCF81810CCF82020DCF8081041F0BE
:10151000570121F02001ADE7D1E901E3C968DCF80A
:10152000082043EA0E0322F47F4243EA01211143DB
:10153000CCF80810DCF8081041F480419AE700BFAD
:1015400001229AE77047000010B501680446086957
:10155000800744BFC8685FEA807039D408694007D3
:1015600044BFC8685FEA40703ED40869000744BFC2
:10157000C8685FEA007045D40869C00644BFC868FF
:101580005FEAC0604AD40869C0071CBFC8685FEA48
:10159000C07051D10869000644BFC8685FEA0060A6
:1015A00052D40869400644BFC8685FEA406053D41B
:1015B0000869800646BFC8685FEA806010BD6FF0AA
:1015C000200220460A61BDE81040FFF7D9BD00BFE8
:1015D0006FF002000861012020778869800743D0FE
:1015E0002046FFF7AFFF45E06FF0040008610220DE
:1015F0002077886910F4407F40D02046FFF7A2FF93
:1016000042E000BF6FF00800086104202077C8693D
:1016100080073DD02046FFF795FF3FE06FF01000B8
:10162000086108202077C86910F4407F3AD020462E
:10163000FFF788FF3CE000BF6FF001000861204623
:1016400000F03EF82168A5E76FF0800008612046B1
:10165000FFF794FD2168A4E76FF040000861204681
:1016600000F03EF82168A3E7204600F025F8204668
:1016700000F024F82168002020776FE7204600F072
:101680001BF8204600F01AF82168002020776CE74C
:10169000204600F011F8204600F010F821680020E4
:1016A000207769E7204600F007F8204600F006F8AA
:1016B00021680020207766E770470000704700002F
:1016C000006842F60041C4F20101884218BF704729
:1016D00040F24800C2F20000012101707047000092
:1016E00070470000002804BF0120704710B5044671
:1016F00090F8410028B9002084F84000204600F00E
:1017000063F8242084F841002068D4E90212C368F9
:1017100023F40053C360036923F440531A43026166
:10172000D4E904231143C268194341F20C639A437C
:101730001143C1604169A26921F44071114343F62C
:101740000002C4F201029042416103D0FFF7D8FACF
:1017500002E000BFFFF7E8FAD4E90023192148436B
:101760009900B0FBF1F048F21F5CC5F2EB1CA0FB46
:101770000C314FF69C734909C0F6FF7301FB03005F
:10178000322303EB0010A0FB0C03F02000EA5310FF
:1017900000EB0110C3F3431108449060106920214D
:1017A00020F490401061506920F02A005061D06808
:1017B00040F40050D0600020606484F8411084F848
:1017C0004210606310BD000070B586B040F60004A2
:1017D000C4F201040068A4F544410026884205963D
:1017E000CDE90366029601D006B070BD41F2180043
:1017F000C4F20200416802AD41F400314160416829
:1018000001F4003101910199016841F00401016086
:101810000068294600F0040001900198042002901D
:1018200002200390032005902046FEF7C1FF082008
:10183000CDE90206204629460496FEF7B9FF06B018
:1018400070BD00002DE9F04381B0044690F84100DE
:10185000202809D1884600294FF0010018BF002A2E
:1018600006D101B0BDE8F083022001B0BDE8F083ED
:101870000020606421201D4684F841001646FFF7D1
:10188000A5F8A684E684A1680646B1F5805F03D179
:101890002069002800F0948047464FF00008E18C52
:1018A0002068002900F0928005F101090BE000BFDB
:1018B00047B317F8011B4160E18C0139E184E18CE9
:1018C000002900F0838001680906F1D4B9F1000F06
:1018D0000AD0EDB1FFF77AF8801BA84218D820682B
:1018E00001680906F6D5E3E701680906E0D4016856
:1018F00009065CBF01685FEA0161D9D40168090685
:10190000F2D5D5E738F8021B00276FF35F21D2E745
:10191000206850E8030F216820F4D07041E80302EA
:10192000BAB3206850E8030F216820F4D07041E872
:10193000030272B3206850E8030F216820F4D070CE
:1019400041E803022AB3206850E8030F216820F41D
:10195000D07041E80302002ADAD11AE0206850E88A
:10196000050F216820F0010041E80502DAB1206886
:1019700050E8050F216820F0010041E8050292B10E
:10198000206850E8050F216820F0010041E80502B9
:101990004AB1206850E8050F216820F0010041E8B5
:1019A0000502002ADAD1202084F8410084F84200A0
:1019B000002084F84000032001B0BDE8F08300BFA0
:1019C0000027E18C206800297FF46EAF016849068A
:1019D0000FD4F5B1691C17D10168490609D4016813
:1019E00049065CBF01685FEA416102D401684906AB
:1019F000F2D5202084F84100002001B0BDE8F0833A
:101A0000206800684006F4D4FEF7E0FF801BA8427F
:101A1000F6D9206850E8030F216820F4D07041E81F
:101A20000302EAB3206850E8030F216820F4D07065
:101A300041E80302A2B3206850E8030F216820F4B4
:101A4000D07041E803025AB3206850E8030F2168C0
:101A500020F4D07041E80302002ADAD120E000BF70
:101A6000206850E8050F216820F0010041E80502D8
:101A7000002A98D0206850E8050F216820F0010066
:101A800041E80502002A3FF48EAF206850E8050FB8
:101A9000216820F0010041E80502002A3FF483AFED
:101AA000206850E8050F216820F0010041E8050298
:101AB000002AD5D177E7000040F24801C2F20001C8
:101AC0000878002808BF704741F6DC100022C2F2F7
:101AD00000000A7000F04CBA80B540F61040C4F225
:101AE00001004FF4807101604FF60041CFF6FF71A5
:101AF0004FF4001E4FF0007C4FF080634FF4002243
:101B000040F801E0C0F800C0435002604FF480127A
:101B1000C0F800E002604FF08072036042504FF462
:101B200000024FF4800340F801C0C0F800240360B5
:101B30004250435080BD0000002808BF7047002974
:101B400018BF002A00D170472DE9F04F8DB041F643
:101B5000DC1A282AC2F2000A28BF282250290E4681
:101B6000044650460D464FF49651039228BF502626
:101B7000FEF7DFFA701E029006F07E0B0494023C22
:101B800005956800002204254FF008080023019005
:101B9000CDE9066B12E000BF84F8800C0B9A039825
:101BA00001320A9B824201980C9CDDF81CB003F1C3
:101BB000010304444FF0040500F0BC810598142A89
:101BC00002FB00F1049800EB41001146099028BF88
:101BD000A3F1140101EB81010901142A89B20C94CB
:101BE000CDE90A32089180F083800298002800F045
:101BF00007810AEB010800254FF002094FF0200A87
:101C00004FF0400C4FF0420E638808EB050797F841
:101C1000800C09EA93360AEAD31131440CEA5306E0
:101C200000F01D00314418F80520084403F00801B5
:101C30000EEAD30646EA01110AEA5326314402F0BD
:101C40001D0211440AEA132208F8051009EA53217B
:101C500097F8406611440CEA9302114403F0040221
:101C600006F01D0641EA4211314487F8401603F0A0
:101C7000020140EA811087F8800C34F8043F97F89D
:101C8000810C09EA93320AEAD31632440CEA53066D
:101C900000F01D0032447978104403F008020EEA87
:101CA000D30646EA02120AEA5326324401F01D0125
:101CB00011440AEA1322797009EA532197F8416620
:101CC00011440CEA9302114403F0040241EA421168
:101CD00006F01D02114487F8411603F00201023597
:101CE00040EA8110AB4587F8810C8DD189E000BFB7
:101CF0000298002800F0D480DDF81CC00AEB010E29
:101D00004FF0000B214600BF4F880EEB0B0494F8F8
:101D1000803C05EA9729082000EA171849EAD736D7
:101D200003F0E20346444FF008083344C7F30016BB
:101D300007F008021EF80BA046EA420208EA9716CE
:101D4000324405EA173632440AF0E2001044C7F381
:101D500080220EF80B0008EA571094F840661044F1
:101D600007F0040240EA820005EAD72206F0E20604
:101D70001044304484F8400607F0020043EAC000F3
:101D800084F8800C31F8047F94F8810C05EA9723DD
:101D900008EA171643EAD73300F0E2003344184448
:101DA000C7F3001307F00806627843EA460308EA1F
:101DB0009716334405EA1736334402F0E2021A4418
:101DC000C7F38023627008EA571294F841661A44F8
:101DD00007F0040342EA830205EAD7231A4406F017
:101DE000E2031A4484F8412607F002020BF1020BC9
:101DF00040EAC200DC4584F8810C85D152E000BF86
:101E00000025069E41F6DC1AF0074FF0020E4FF057
:101E100020074FF0400C4FF042094FF00808C2F283
:101E2000000A3FF4BBAE099830F81510089801F08D
:101E3000080328441AF8002009EAD10545EA0313EB
:101E400007EA51252B4402F01D020AEB00041A4454
:101E500094F8805C0AF800200EEA913007EAD1126B
:101E600010440CEA510205F01D05104407EA112246
:101E700028440EEA512594F840362A440CEA91058C
:101E80002A4401F0040542EA451203F01D031A44F6
:101E900001F0020184F8402640EA81107CE600BF90
:101EA0004FF0000B069E41F6DC1AF007C2F2000A62
:101EB0003FF474AE0998042730F81B100898C1F35A
:101EC00000120BEB000301F008051AF8030042EAC8
:101ED000450208EA91152A4407EA11352A4400F020
:101EE000E2000AEB0304104494F8805C0AF8030053
:101EF00007EA912008EA111340EAD13005F0E20523
:101F00001844C1F38023284408EA511594F8402668
:101F10002B4401F0040543EA850307EAD1252B444D
:101F200002F0E20201F002011A4440EAC10084F822
:101F3000402631E60DB0BDE8F04F704740F2280171
:101F4000C2F20001087070470138C0B214220821A3
:101F5000032838BF01EB800241F64C10C2F20000AA
:101F6000016800234B62CA62C260FFF7E3B9000058
:101F70002DE9F04F81B040F2280340F61042C2F242
:101F80000003C4F20102DF884FF480711160998868
:101F900007EB87034FF6004B00EB031A0024CFF644
:101FA000FF7B20254FF400194FF0000C00234FF069
:101FB0000008002000264FF0000E009741E000BF0F
:101FC000C7F3401EC7F38008C7F38016C7F3C003EA
:101FD000F809C7F3001C4FF48065BEF1000F08BF7D
:101FE0004FF0806542F80B500825002E08BF4FF4D3
:101FF000002515602025002808BF4FF40015156046
:102000001025B8F1000F08BF4FF4801515604FF48C
:102010008065002B08BF4FF0806515604FF4807518
:10202000BCF1000F08BF4FF08075023442F80B502E
:10203000502C4FF0200542F80B9042F80B5000F066
:102040009180032933D8DFE801F00325191F00BF71
:102050000AEB040090F8803C90F840061AF80470EF
:10206000C3F3400E03F00108C0F3400600F0010383
:10207000C7F3400007F0010C19E000BF0AEB0400B1
:1020800090F8407608E000BF0AEB040090F8807CEE
:1020900002E000BF1AF80470C7F3401EC7F38008BF
:1020A000C7F38016C7F3C003F809C7F3001C4FF449
:1020B0008067BEF1000F08BF4FF0806742F80B70D9
:1020C0000827002E08BF4FF400271760202700289C
:1020D00008BF4FF4001717601027B8F1000F08BFB2
:1020E0004FF4801717604FF48067002B08BF4FF044
:1020F00080671760BCF1000F4FF4807708BF4FF086
:102100008077032942F80B7042F80B9042F80B508D
:102110003FF661AFDFE801F00822021C0AEB040081
:1021200090F841764CE700BF0AEB040090F8813C40
:1021300090F841764578C3F3400E03F00108C7F3E9
:10214000400607F00103C5F3400005F0010C42E72B
:102150000AEB040090F8817C32E700BF0AEB040030
:1021600047782DE74FF480704FF4007110601160D4
:10217000009D4027EB0708BF4FF00071802342F815
:102180000B10A90758BF4FF400038021C2F8003498
:102190006B0758BF4FF4800717602F0758BF4FF4E5
:1021A000000142F80B10E9064FF040034FF00071B8
:1021B00058BF4FF4800342F80B3011604FF080712C
:1021C00040F228061160C2F200063378190617D0D3
:1021D00013F00301DBB207D0012900BF32D1591E31
:1021E000042B05D20BE000BF1946042B07D300BF18
:1021F00000BF00BF043900BF0B0400BFF8D1F58851
:102200001060681C81B21429F08017D140F21C00C4
:10221000C2F20000018800220229F2800AD34A1E7D
:10222000B1880827CF4093B2013F9F42028005D179
:10223000481C02E00F2101800020B08001B0BDE801
:10224000F08F00BF00BF02291ABFD91E00BF991E20
:10225000042BCDD2D3E70000FEE700002DE9F04FBC
:1022600085B04FF0000841F21800CDE90388CDE9B0
:102270000188C4F20200016840F6000941F0200123
:1022800001600168C4F2010901F020010091009988
:102290000168012241F0040101600168012401F09C
:1022A000040100910099016841F008010160016892
:1022B00001F0080100910099016841F010010160EE
:1022C0000068202100F01000009000984846FEF7BA
:1022D00077FB48464FF4F8610022FEF771FB09F5E1
:1022E000806528464FF4CF610022FEF769FB09F5AF
:1022F00000663046802100224FF0800AFEF760FB26
:1023000028464FF480710122FEF75AFB4FF4787093
:1023100001AFCDE901044FF0030B48463946039461
:10232000CDF810B0FEF744FA4FF4E860CDE90104AF
:1023300028463946CDE9034BFEF73AFA304639468E
:10234000CDE901A4CDE9034BFEF732FA4FF48060EA
:1023500001A981E811010226484639460496FEF794
:1023600027FA382001A981E8110128463946049648
:10237000FEF71EFA05B0BDE8F08F000080B586B00C
:1023800041F64C1042F600420021C2F20000C4F2B5
:10239000010240F2F3134FF0040C4FF0800E059150
:1023A000CDE90311CDE90011C0E90023C0E9021C09
:1023B000C0E90411C0F818E0FEF724FF002818BF98
:1023C000FEF7F0F94FF48050029041F64C10C2F243
:1023D000000002A9FEF7E6FF002818BFFEF7E2F9A9
:1023E00041F64C10C2F200006946FEF7CBFE002811
:1023F00018BFFEF7D7F906B080BD000080B541F6E2
:10240000941044F20041C2F20000C4F20001002323
:102410004FF00C0C4FF4E13280E80E00C0E90333BA
:10242000C0E905C3C361FFF75DF9002808BF80BD9F
:10243000BDE88040FEF7B6B9FEE70000FEE7000009
:10244000B0B540F2300EC2F2000EBEF81440002CBF
:1024500043D0BEF81210002908BFB0BDDEF800203E
:1024600000234FF0000C07E0BEF814400CF1010C03
:10247000A44503F1020330D241B3002403FB012140
:10248000651C21F81400BEF812108D42ECD203FB3B
:102490000121A51C01EB44014880BEF812108D42B9
:1024A000E2D203FB0121E51C01EB44018880BEF868
:1024B00012108D42D8D203FB012101EB4401C880E8
:1024C000BEF8121004348C42D8D3CDE700210CF1B1
:1024D000010CA44503F10203CED3B0BD2DE9F04FAA
:1024E00085B040F23006C2F200069846B3888342B7
:1024F000C0F082810446F0888B468842C0F07C811F
:10250000B8F80600002800F07D81B8F80410002912
:1025100000F078810F9B203A02930E9BCF08039323
:10252000D8F80030424301204D0718BF00EBD10717
:1025300002FB07370023CDF800B00AE00020410776
:1025400018BF01370133B8F806109AB28A4280F0FA
:1025500059810028F2D00193029803EB0B094FF642
:10256000FF7188426FEA0900049000F0D1804FF0BB
:10257000000A10E045F24D40C0F6000001F0C0FE38
:10258000BBF1070F08BF0137B8F804000AF1010AD0
:10259000824580F0B9800AEB0400B28883B29A4287
:1025A0004FF00002397838BF0122F3880AF0070B98
:1025B0001FFA89F5AB424FF0000301FA0BF138BF67
:1025C0000123090642EA030110D50029D2D1F1897D
:1025D000B3291DDCC1B35A29D2D1328901460498EE
:1025E0001044328A032A3FD9CAE700BF0029C1D16B
:1025F000F189B3291ADC002954D05A29C0D1328973
:10260000014604981044328A032A5BD9B8E700BF18
:10261000B4291FD0B1F5877FB2D17189C04301447D
:102620004846328A032A1FD9AAE700BFB4293FD0FF
:10263000B1F5877FA4D17189C04301444846328AED
:10264000032A3FD99CE700BF4946328A032A0BD9A7
:1026500096E700BF3189C043728908440499114448
:10266000328A032A3FF68CAFDFE802F00C0209063B
:102670003289C043104405E03289C0431044728956
:10268000C9431144328980B290423FF673AF7289D8
:1026900089B291423FF66EAF728A33685143039A12
:1026A0002CE000BF4946328A032A0BD968E700BFF5
:1026B0003189C0437289084404991144328A032A3B
:1026C0003FF65EAFDFE802F00C0209063289C04334
:1026D000104405E03289C04310447289C943114453
:1026E000328980B290423FF645AF728989B29142F9
:1026F0003FF640AF728A33685143029A03EB4101BF
:1027000021F810203CE700BFDDF800B071E000BF09
:10271000A24600250EE000BF45F24D40C0F6000085
:1027200001F0EEFD072C08BF0137B8F804000135B1
:1027300085425DD2387805F00704A0400006F1D547
:1027400005EB0A00B18882B29142E5D3F1881FFA05
:1027500089F29142E0D3F189B3290BDCC1B15A2946
:10276000E0D13289014604981044328A032A1ED9E6
:10277000D8E700BFB42911D0B1F5877FD2D17189D4
:10278000C04301444846328A032A10D9CAE700BF31
:102790004946328A032A0AD9C4E700BF3189C043B7
:1027A0007289084404991144328A032ABAD8DFE8AE
:1027B00002F00D030A0700BF3289C043104405E050
:1027C0003289C04310447289C9431144328980B2AE
:1027D0009042A1D8728989B291423FF69DAF728A28
:1027E00033685143039A03EB410121F8102099E724
:1027F0005446019BA3E600BF04A005B0BDE8F04F1E
:1028000001F07EBD05B0BDE8F08F00BF5061696E7C
:10281000745F447261774368617220496E707574A9
:10282000206578636565647320746865206E6F72D7
:102830006D616C20646973706C61792072616E6780
:10284000650D00002DE9F04F93B040F23004C2F264
:1028500000041546A28806938242C0F0B5848346E0
:10286000E0888A46884240F2AF841D9803210128FF
:10287000A1EB450728B2CDF83CA040F0AB8400287E
:1028800000F122854FF0000819E000BF039F0621E8
:1028900038B201EB8801B0F1FF3F4FF00A00A8EB1E
:1028A0000502C8BF013DC8BF00EB820108F101006D
:1028B0002DB20FFA80F8A8450F4400F3058508EB08
:1028C0000B0081B203970D90481E0B90ABEB0800F4
:1028D00082B2501E0A9008EB0A0086B20990701E60
:1028E0000890AAEB080080B2431E07931291494258
:1028F000059151421192049171420291109040420F
:10290000C14601900E950C961EE000BF45F21540A1
:10291000C0F6000001F0F4FCA28845F26B40C0F65E
:102920000000294601F0F0FBE28845F28F40C0F636
:102930000000314601F0E8FB0E9D09F101000FFA9D
:1029400080F928B28145A1DCA088129909EB0A0719
:102950008842BDB224D3E188A94221D30D9A120442
:1029600018BF5FEA074231D00B9A92B29042C0F092
:102970003B83781E82B29142C0F03683E189B3294D
:1029800000F34281002900F0CF825A291ED120890C
:102990000B99C01B228A032A40F2DB8216E000BF9B
:1029A00045F21540C0F6000001F0AAFCA28845F2ED
:1029B0006B401299C0F6000001F0A6FBE28845F2D8
:1029C0008F40C0F60000294601F09EFBA0881199B7
:1029D000884225D3E188A94222D31FFA88F2934581
:1029E00018BF5FEA074231D00A9A92B29042C0F013
:1029F0001B83781E82B29142C0F01683E189B3290D
:102A000000F31281002900F095825A291ED12089F5
:102A10000A99C01B228A032A40F2AD8216E000BF49
:102A200045F21540C0F6000001F06AFCA28845F2AC
:102A30006B401199C0F6000001F066FBE28845F298
:102A40008F40C0F60000294601F05EFBABEB0907A2
:102A5000A188BDB2A94227D3E288B24224D31FFA8B
:102A600089F083451CBF09985FEA004032D0781E88
:102A700083B29942C0F08083089989B28A42C0F03B
:102A80007B83E189B32900F3EF80002900F00C83F8
:102A90005A291FD12289014602981044228A032A0A
:102AA00040F2118316E000BF45F21540C0F6000069
:102AB00001F026FCA28845F26B40C0F600002946D2
:102AC00001F022FBE28845F28F40C0F6000031465B
:102AD00001F01AFBA188A94228D3E288109882420B
:102AE00024D31FFA89F0834536D01FFA88F0824537
:102AF00032D0781E83B29942C0F01E83079989B202
:102B00008A42C0F01983E189B32900F39D8000292E
:102B100000F0B2825A291FD122890146019810443F
:102B2000228A032A40F2B78216E000BF45F2154020
:102B3000C0F6000001F0E4FBA28845F26B40C0F64D
:102B40000000294601F0E0FAE28845F28F40109932
:102B5000C0F6000001F0D8FAA0881199AAEB090A82
:102B600088421FFA8AF529D3E188A94226D31FFAA1
:102B700088F2934500F0BE800F9B1FFA89F29342C2
:102B800000F0B8800A9A92B29042C0F0AD80AAF1EB
:102B9000010082B29142C0F0A780E189B32925DC0F
:102BA000002971D05A2940F0A58020890A99A0EB0C
:102BB0000A00228A032A76D99CE000BF45F215401C
:102BC000C0F6000001F09CFBA28845F26B40119911
:102BD000C0F6000001F098FAE28845F28F40C0F696
:102BE0000000294601F090FA84E000BFB42951D0DA
:102BF000B1F5877F40F07E806189049A1144228A72
:102C0000032A50D976E000BFB42900F09981B1F5CC
:102C1000877F7FF4DBAE6189059A1144228A032AFB
:102C200040F29781D2E600BFB42900F09B81B1F554
:102C3000877F7FF40BAF6189049A1144228A032AAB
:102C400040F2998102E700BFB42900F01B82B1F580
:102C5000877F7FF481AF6089C11B0798228A032A8E
:102C600040F2198278E700BFB42900F02382B1F561
:102C7000877F7FF42FAF6089C11B0898228A032ABF
:102C800040F2218226E700BF01460A98228A032AE1
:102C900009D92FE020896189049AA1EB0A01104427
:102CA000228A032A26D8DFE802F00D030A0700BFB4
:102CB0002289C043104405E02289C0431044628940
:102CC000C9431144228980B290420DD8628989B2E9
:102CD000914209D8628A23685143069A03EB410165
:102CE00021F8102006E000BF45F24D40C0F600007C
:102CF00001F006FBA0881299884223D3E188A942FB
:102D000020D30D9A120400F077800F9B1FFA89F2EE
:102D1000934271D00B9A92B2904267D3AAF101000C
:102D200082B2914262D3E189B32923DC71B35A297B
:102D300062D120890B99A0EB0A00228A032A34D998
:102D40005AE000BF45F21540C0F6000001F0D8FA85
:102D5000A28845F26B401299C0F6000001F0D4F948
:102D6000E28845F28F40C0F60000294601F0CCF918
:102D700042E000BFB4290FD0B1F5877F3CD1618913
:102D8000059A1144228A032A0FD935E001460B988F
:102D9000228A032A09D92FE020896189059AA1EBAB
:102DA0000A011044228A032A26D8DFE802F00D0324
:102DB0000A0700BF2289C043104405E02289C043AE
:102DC00010446289C9431144228980B290420DD8CF
:102DD000628989B2914209D8628A23685143069A6E
:102DE00003EB410121F8102006E000BF45F24D4001
:102DF000C0F6000001F084FA09EB0B07A188BDB210
:102E0000A94227D3E2881098824223D3DDF83CA060
:102E1000380463D01FFA88F00C9E824533D0781EA8
:102E200083B29942C0F02081079989B28A42C0F0EA
:102E30001B81E189B3295BDC002900F0A5805A29B8
:102E400021D12289014601981044228A032A40F2A6
:102E5000AA8018E045F21540C0F6000001F050FAD3
:102E6000A28845F26B40C0F60000294601F04CF9FB
:102E7000E28845F28F401099C0F6000001F044F955
:102E8000DDF83CA00C9EA188A942FFF43FADE2888A
:102E9000B242FFF43BAD38041CBF09985FEA004022
:102EA0003FF44AAD781E83B29942C0F085810899FB
:102EB00089B28A42C0F08081E189B32924DC0029EB
:102EC00000F00A815A297FF437AD22890146029821
:102ED0001044228A032A40F20E812DE5A0880C9E20
:102EE000A842FFF413ADE088B042BFF425AD0DE574
:102EF000B4294FD0B1F5877FC5D16089C11B079830
:102F0000228A032A4FD9BEE7B42900F0EB80B1F53D
:102F1000877F7FF411AD6089C11B0898228A032A3C
:102F200040F2E98008E500BF01460B98228A032A97
:102F30000FD94BE501460A98228A032A1BD985E559
:102F400020896189059AC91B1044228A032A3FF609
:102F50003DADDFE802F03703343100BF2289C043C2
:102F600010442FE020896189049AC91B1044228AE9
:102F7000032A3FF66BADDFE802F04503423F00BF96
:102F80002289C04310443DE00799228A032A0AD9C6
:102F900079E700BF20896189019AC01B1144228A08
:102FA000032A3FF670AFDFE802F04D034A4700BF47
:102FB0002289C043104445E02289C04310446289FD
:102FC000C9431144228980B290420DD8628989B2E6
:102FD000914209D8628A23685143069A03EB410162
:102FE00021F81020F2E400BF45F24D40C0F6000089
:102FF00001F086F9EAE400BF2289C04310446289E7
:10300000C9431144228980B290420DD8628989B2A5
:10301000914209D8628A23685143069A03EB410121
:1030200021F8102012E500BF45F24D40C0F6000027
:1030300001F066F90AE500BF2289C04310446289A5
:10304000C9431144228980B290420DD8628989B265
:10305000914209D8628A23685143069A03EB4101E1
:1030600021F810200FE700BF45F24D40C0F60000E8
:1030700001F046F907E700BF0799228A032A0AD917
:103080006AE500BF20896189019AC01B1144228A28
:10309000032A3FF661ADDFE802F03D033A3700BF97
:1030A0002289C043104435E00899228A032A0AD9AC
:1030B00010E500BF20896189029AC01B1144228A51
:1030C000032A3FF607ADDFE802F04503423F00BFA9
:1030D0002289C04310443DE00899228A032A0AD974
:1030E000FFF72ABC20896189029AC01B1144228AF9
:1030F000032A3FF621ACDFE802F04D034A4700BF48
:103100002289C043104445E02289C04310446289AB
:10311000C9431144228980B290420DD8628989B294
:10312000914209D8628A23685143069A03EB410110
:1031300021F8102010E500BF45F24D40C0F6000018
:1031400001F0DEF808E500BF2289C043104462891F
:10315000C9431144228980B290420DD8628989B254
:10316000914209D8628A23685143069A03EB4101D0
:1031700021F81020FFF7AEBC45F24D40C0F600002C
:1031800001F0BEF8FFF7A6BC2289C0431044628953
:10319000C9431144228980B290420DD8628989B214
:1031A000914209D8628A23685143069A03EB410190
:1031B00021F81020FFF7C0BB45F24D40C0F60000DB
:1031C00001F09EF8FFF7B8BB41A013B0BDE8F04F87
:1031D00001F096B8002877D4DDF87090DDF81880FB
:1031E000002600BF05EB0A0103970E9506EB0B00C6
:1031F0008DB280B2294642464B460124129000947B
:1032000000F0FCFBABEB06001FFA80FA50462946A3
:1032100042464B460094012400F0F0FB0E980F99B3
:10322000ABEB0000314485B289B2284642464B469A
:1032300011910094012700F0E1FB0F984246801B9A
:1032400084B2284621464B46009700F0D7FBDDE9C3
:103250000E014246081A85B25046DDF83CA02946C8
:103260004B46009700F0CAFB1298294642464B464F
:10327000009700F0C3FB0E982146584485B22846BB
:1032800042464B460097012400F0B8FB11992846AE
:103290000E9D4246039F4B46009400F0AFFB38B2B0
:1032A000062101EB8601B0F1FF3F4FF00A00A6EBCB
:1032B0000502C8BF013DC8BF00EB8201701C2DB2E2
:1032C00006B2AE420F448DDD13B0BDE8F08F00BFF3
:1032D0005061696E745F44726177436972636C65B3
:1032E00020496E7075742065786365656473207419
:1032F0006865206E6F726D616C20646973706C61BB
:10330000792072616E67650D000000002DE9F04FB5
:103310008BB040F23007C2F200070892BA888242AE
:1033200009D38146F888884205D38A4608998A429B
:1033300028BF984208D245F2DE30C0F600000BB03C
:10334000BDE8F04F00F0DCBF08985146B0EB090033
:103350000A9002D50A9840420A905A1A169848BF15
:10336000524208994FF0FF3489454FF0FF31DDE9B3
:10337000145B38BF012105919A4538BF012402949E
:1033800001280A98C2F10006A0EB020806920995EE
:1033900003930FD1002DCDF81CB073D0CDF810A041
:1033A0004FF0000A38E000BF099D4FEA48000A9933
:1033B00088421FDD1FFA89F41FFA8AF72046394632
:1033C0002A465B463546012600962E4600F016FB3F
:1033D000B5EB480FE8DC0898099D844200F098801E
:1033E0000698A8EB0008059881444FEA48000A991E
:1033F0008842DFDC0398874200F08A800A98804484
:1034000002988244D6E700BFDDF81CB0099D4FEA60
:1034100048000A9988422ADD0AF1010A6FF0540037
:103420000AFB00F0C0B256283CBF00254FF0000A4E
:1034300004981FFA89F487B2204639462A465B462B
:103440000125009500F0DAFAB6EB480FDCDC0898AD
:10345000DDF81CB0099D84425AD00698A8EB0008FC
:10346000059881444FEA48000A998842D4DC0398C1
:1034700087424DD00A9802998044049808440490E9
:10348000CAE700BF00270125CDF810A01FFA8AFA6D
:1034900007E000BFDDF81CB04FEA48000A998842F7
:1034A0002BDD0137F8B2AB214843400A00EB400066
:1034B000381AC0B200281FFA89F408BF074600284E
:1034C0004FF00002204651465B4608BF4FF6FF72A0
:1034D000009500F093FAB6EB480FDBDC0898DDF8B6
:1034E0001CB0844214D00698A8EB000805988144CB
:1034F0004FEA48000A998842D3DC0398824507D0F6
:103500000A98DDF810A0804402988244BCE700BF0E
:103510000BB0BDE8F08F00002DE9F04FADF5097D4F
:103520008946DDE9941A05460691DDE9928649A8A7
:10353000FF219B461746FCF7FCFD09A8FF21FCF77D
:10354000F8FD38465946FCF702FF40F23002C2F25D
:10355000000291880446A94226D3D088484523D347
:10356000089546B3300679D007902046FCF7C5FE93
:1035700002460B4638465946FCF7B9FEFCF706FFF3
:1035800016F0030520D00021C4F22011FCF7DCFD69
:10359000012D21D13146013E5FFA81FBBBF1040FC1
:1035A000059136D247E000BF0FF2184000F0A8FEA8
:1035B000002E0895D6D1DDF818B0002309AF002CF5
:1035C00040F0FC8067E100BF31465FFA81FBBBF150
:1035D000040F05911DD22EE00021C4F22011FCF74A
:1035E000B3FD022D08D13146023E5FFA81FBBBF1EB
:1035F000040F05910DD21EE00021C4F22011FCF74A
:10360000A3FD3146033E5FFA81FBBBF1040F059138
:1036100011D30027C4F220173946FCF795FD39462F
:10362000FCF792FD3946FCF78FFD3946FCF78CFD1F
:10363000043E3106F0D1079981B1FCF76FFE46F2E6
:103640006761BBF1040FC6F266610DD2002309AFBA
:10365000DDF818B0002D6FD1AAE000BFDDF818B07A
:10366000002209AFA4E000BFCDE9025ACDF81090C6
:10367000059A002302F0FC026FF00307079200BFD7
:1036800080FB0162961006EBD27686FB012C48F295
:103690001F52C5F2EB1280FB02256A1102EBD57EA8
:1036A0008EFB012944F6D352C1F2620280FB02254F
:1036B000AA1102EBD57B8BFB012548F6AD32C6F68D
:1036C000DB0280FB022A06EB8602A0EB420009AA7D
:1036D00030303A4410714FEA9C0000EBDC7000EB94
:1036E0008000A6EB4000303050714FEA990000EBAB
:1036F000D97000EB8000AEEB400030309071A8082C
:1037000000EBD57000EB8000ABEB400030300433B1
:10371000079ED0714FEA2A30DAB200EBDA70B2427B
:1037200007F10407ACD13A1DDDE903A9029D134658
:1037300009AFDDF818B0DDB3AE463D4680FB01278A
:10374000BA1002EBD77707EB8702A0EB42023032C8
:10375000EA54BEF1010F03F1010210D087FB016CA6
:103760004FEA9C0606EBDC7606EB8606A7EB4607DF
:103770003037AF54BEF1020F03F1020202D12F46DF
:1037800016E000BF48F21F57C5F2EB1780FB070792
:10379000781100EBD77080FB0117B90801EBD771E6
:1037A00001EB8101A0EB410009AF3030B854DA1CC5
:1037B00010B22E21531C3954002C6CD046F2676194
:1037C00048F21F5244F6D35C48F6AD3EC6F266613D
:1037D000C5F2EB12C1F2620CC6F6DB0E84FB0106E9
:1037E000B01000EBD67000EB8006A4EB4606303636
:1037F0001DB27E5504F10906132E03F1010649D3CB
:1038000080FB0157BD0805EBD77505EB8505A0EBDF
:1038100045050930303536B209AF132803F10200EF
:10382000BD5535D384FB0256751105EBD67585FB66
:103830000167BE0806EBD77606EB8606A5EB4606C3
:10384000303600B209AF3E5405F10900132803F1E8
:1038500003001DD384FB0C56B51105EBD67585FB13
:10386000016784FB0E46BC0804EBD77404EB8404A8
:10387000A5EB440409AF303400B23C54301305F1D9
:1038800009040433132C00EBD674A7D203E000BF65
:10389000034600E0334618B2089F01280DF5927EDA
:1038A0003BDB99B2042903F0030C05D20022BCF1E2
:1038B000000F1FD131E000BF47F6FC7209A80A4093
:1038C0000B1852421F1FAEF103060023FD18A87803
:1038D0006C78ED7806F8040FF85C043B9A4206F821
:1038E000015C7470B070F1D1089F5A421944BCF168
:1038F000000F12D009A8014411F8010CBCF1010F0E
:103900000EF8020009D011F8020C72445070BCF19C
:10391000020F1CBF11F8030C907040F23002C2F28B
:1039200000029088B84243D3D088484540D39DF8E0
:1039300024C1BCF1000F36D0B8F80400AEF1010488
:103940004E4600BFB9B280B20844918840F23002BE
:10395000B8F80630C2F20002884288BF1E44B5B2F1
:10396000D2882B449342089D88BF2F46884288BF47
:103970002F46934288BF4E46B1B2B8B25FFA8CF27E
:103980004346CDE900BAFEF7A9FDB8F8040094F863
:1039900002C040F23002C2F200020744BCF1000F44
:1039A00004F10104CED10DF5097DBDE8F08F00BF13
:1039B00045F2A230C0F600000DF5097DBDE8F04FDC
:1039C00000F09EBC5061696E745F4469734E756D02
:1039D00020496E7075742065786365656473207422
:1039E0006865206E6F726D616C20646973706C61C4
:1039F000792072616E67650D000000002DE9F04FBF
:103A000083B040F23004C2F200049146A2880D4611
:103A10008242009030D3E088A8422DD30C981F46F4
:103A2000012843D1002F00F0A9804FF0FF3000EBB8
:103A3000470400984FF0000AA0EB0708EF1B002096
:103A400007E000BF0AF1010A0FFA8AF0844240F34E
:103A5000958018EB0001F5D400208DB2002600BF40
:103A6000C019EFD481B228464A4600F059FA01360F
:103A700030B28442F4DCE5E745F21540C0F60000C0
:103A800000F03EFCA28845F26B400099C0F60000B1
:103A900000F03AFBE28845F28F40C0F6000029466C
:103AA00003B0BDE8F04F00F02FBB00BF002F65D082
:103AB00045F24D460021C0F6000604E001990131AF
:103AC00008B2B8425ADA009801910144A1F1010804
:103AD0004FF0000A1FFA88FB0846029109E000BF78
:103AE000304600F00DFC0AF1010A0FFA8AF0B842E4
:103AF000E4DAA0885845F3D30AEB0502501EE188AA
:103B000083B29942ECD3E389B32B09DC01464046EA
:103B10009BB15A2BE7D120894146801A0DE000BFA6
:103B2000B42B05D0B3F5877FDDD16189029A03E01C
:103B30002089029B6189C01A891A228A032AD2D855
:103B4000DFE802F00C0209062289C043104405E0B8
:103B50002289C04310446289C9431144228980B23A
:103B60009042BDD8628989B29142B9D8628A2368ED
:103B7000514303EB410121F81090B4E703B0BDE8D5
:103B8000F08F00002DE9F04F89B040F23006C2F20C
:103B900000061546B2880890824209D245F22540B7
:103BA000C0F6000009B0BDE8F04F00F0A9BB00BFAF
:103BB0000F46F18845F225409942C0F6000028BF23
:103BC000AA42EFD3B942EDD3DDE913100791129960
:103BD00006910593C0B39F4280F0E68008984FF0AD
:103BE000FF3A4FF00109A84238BF4FF0010A0CE03C
:103BF00045F2DE30C0F6000000F082FB0137059987
:103C0000B8B288425E4680F0CF80B0880899B3464B
:103C1000884228BFA842EBD3BBF80600BCB2089E7E
:103C2000A042E5D31FFA86F8DDE906234046214687
:103C3000CDF80090FFF7E2FEA845DFD00898564483
:103C40008542EFD1DAE700BFB246089E4FF0FF3859
:103C50004FF00109AE4238BF4FF00108B4B2DDE9C0
:103C6000062320463946CDF80090FFF7C7FEAC4248
:103C700003D0089846448542F0D1BAF80400089968
:103C800088422BD245F2DE30C0F6000000F038FB4F
:103C900040F23009C2F20009B9F80400A84207D383
:103CA000B9F806000599884228BFB84280F08080A4
:103CB00045F2DE30C0F6000000F022FB40F2300298
:103CC000C2F200029088A84246D245F2DE30C0F629
:103CD000000009B0BDE8F04F00F012BBBAF80600D2
:103CE000B842CFD305998842CCD305980126C11B91
:103CF00048BF4942B8424FF6FF7088BF012002908A
:103D0000C1F1000ADDF820808B463846D146039089
:103D100080B2049004E000BF4FEA4A00002813DD9F
:103D20001FFA88F40499DDE9062320460096FFF780
:103D300065FEB9EB4A0FEFDC08988442A8D0AAEBE5
:103D40000B0AA8F10108E7E7DDE9041081429FD0E2
:103D5000DDE902010844DAE70899884245F2DE30DD
:103D6000C0F60000FFF41EAFD188DDF8149049457D
:103D7000FFF418AF08984FF6FF764FF001082F4672
:103D8000854238BF012600BFBCB2DDE906232046CC
:103D90004946CDF80080FFF731FE0898844203D0F1
:103DA00008983744A842EFD109B0BDE8F08F00BFB2
:103DB00005984FF6FF71B7EB000B48BFCBF1000B36
:103DC000CBF1000AA846D1460126874288BF0121CF
:103DD0000291039080B2049004E000BF4FEA4A00D1
:103DE000002813DD1FFA88F40499DDE90623204634
:103DF0000096FFF703FEB9EB4A0FEFDCAC423FF44D
:103E00005DAFAAEB0B0AA8F10108E7E70498B842F6
:103E10003FF454AFDDE902010844DAE72DE9F04F41
:103E200085B040F23004C2F200049946A388834270
:103E30003ED38046E0888C46884239D313789BB3C2
:103E40000F98A2F1010A04900E98E3460390B9F886
:103E50000400049F454600BFA9B280B20844A1886F
:103E6000B9F80620884288BF93441FFA8BF0E18896
:103E7000104488BF4546884284BF4546E346039EBA
:103E80001FFA8BF1A8B2DAB24B46CDE9007666464E
:103E9000FEF724FBB9F804009AF80230B446054452
:103EA000002B0AF1010AD7D105B0BDE8F08F00BFA1
:103EB00045F2A230C0F6000005B0BDE8F04F00F0BA
:103EC0001FBA000080B540F2300CDDF808E0C2F205
:103ED000000CCCF800000020ACF80810ACF80A2068
:103EE000ACF80CE0ACF81210ACF81420ACF80E30C2
:103EF000ACF810000BB1B42B06D108461146ACF853
:103F00000400ACF8061080BD1046ACF80400ACF814
:103F1000061080BD40F23001C2F200010860704717
:103F200080B540F2300EC2F2000EBEF8043083427B
:103F300058D3BEF806308B4254D3BEF80E30B32BA4
:103F400008DC9BB15A2B4CD1BEF80830C943194448
:103F5000844617E0B42B0BD0B3F5877F41D1BEF870
:103F60000A30C04303EB000C0CE000BF8C4608E0B5
:103F7000BEF808C0BEF80A30C043C943604403EB32
:103F8000010C0146BEF81000032888BF80BDDFE8A1
:103F900000F013030D0900BFBEF80800C943014437
:103FA0000AE000BFBEF80800C9430144BEF80A0099
:103FB0006FEA0C0300EB030CBEF8083088B298429D
:103FC00010D8BEF80A301FFA8CF199420AD8BEF810
:103FD00012C0DEF800300CFB01F103EB410121F8C7
:103FE000102080BD45F24D40C0F60000BDE8804085
:103FF00000F086B97047000070470000FCF7ECBC89
:104000007047000041F64C10C2F20000FDF79CBA68
:10401000FEE7000080B582B0019041F69410C2F234
:10402000000001A901224FF6FF73FDF70BFC019878
:1040300002B080BD90B0FCF7DDFC00240120CDE98A
:104040000B44CDE9094406900A904FF4E0104FF478
:10405000803102250F9006A8CDE90714CDE90D5156
:10406000FCF776FE20B1EFF3108072B6FEE700BFDA
:104070000F20CDE901054FF48060CDE9040401A8CB
:1040800002210394FCF75EFD20B1EFF3108072B6BD
:10409000FEE700BFFEF7E2F8FEF7B0F9FEF76EF9B3
:1040A000FCF766FBFDF718FD8020FDF747FF0120B8
:1040B000FDF74AFF40F24A04C2F200040025204600
:1040C0005021282200230095FFF7FCFE2046FFF731
:1040D00021FF03E0681CC51E18BF0546A8B2FCF707
:1040E00065FAFCF773FC0446FCF770FC001BC00883
:1040F0007C28EFD8FDF7E0FCFCF768FC001BB0F56E
:104100007A7FF7D3E6E700000FB4054B10B503A99B
:10411000044A029800F018F810BC5DF814FB000087
:10412000154000080000002002E008C8121F08C166
:10413000002AFAD170477047002001E001C1121F28
:10414000002AFBD1704700002DE9FF4F8BB09A4643
:104150000F460546002606E025280BD052460D994D
:1041600090476D1C761C28780028F5D10FB030469A
:10417000BDE8F08F0024A0460122604900E004431E
:1041800015F8013F203B02FA03F00842F7D12878E6
:104190002E2817D115F8010F44F004042A280ED058
:1041A0006FF02F022878A0F1300109290AD808EB16
:1041B000880102EB410100EB01086D1CF2E757F8A2
:1041C000048B6D1C287869283ED006DC0028CDD0F1
:1041D00063280BD0642804D136E0732810D07528EA
:1041E0004BD052460D999047761C85E017F8040B8A
:1041F0008DF8000000208DF80100E946012003E061
:1042000057F8049B4FF0FF3061074FF0000401D4D2
:104210000AE0641C44450DDA8442FADB19F8041004
:104220000029F6D106E0641C8442FCDB19F8041076
:104230000029F8D1264404E019F8010B52460D99E3
:104240009047641EF8D257E001CF4FF00A0B0028C8
:1042500002DA40422D2102E0210504D52B218DF800
:104260002410012103E0E10705D02021F7E70DF13B
:10427000200908910CE00021F9E701CF4FF00A0B6B
:10428000F9E75946FCF79EF801F1300209F8012DD3
:104290000028F6D1ADEB090000F1200B600701D436
:1042A0004FF00108D84502DDA8EB0B0000E000202C
:1042B0008046002406E009A85246005D0D9990470B
:1042C000641C761C08988442F5DB04E030205246DA
:1042D0000D999047761CB8F10001A8F10108F5DCB2
:1042E00005E019F8010B52460D999047761CBBF179
:1042F0000001ABF1010BF4DC6D1C34E7092801006F
:1043000010B5044601E0FFF785FE14F8010B0449DF
:104310000028F8D1BDE810400A20FFF77BBE00005E
:104320000000002000000000000000000102030463
:104330000607080900000000010203040000000055
:10434000000000000000000000101010101000001D
:1043500010000000006C4848000000000000000051
:10436000001414287C287C2850500000001038408D
:104370004038487010100000002050200C700814C5
:1043800008000000000000182020544834000000FD
:1043900000101010100000000000000000080810BD
:1043A000101010101008080000202010101010101D
:1043B0001020200000107C102828000000000000C1
:1043C0000000101010FE101010000000000000008F
:1043D000000000181030200000000000007C0000E9
:1043E000000000000000000000000030300000006D
:1043F0000004040808101020204000000038444445
:1044000044444444380000000030101010101010D4
:104410007C00000000384404081020447C000000A8
:10442000003844041804044438000000000C14143C
:1044300024447E040E000000003C20203804044484
:1044400038000000001C204078444444380000003C
:10445000007C4404080808101000000000384444A0
:10446000384444443800000000384444443C0408C4
:10447000700000000000003030000030300000000C
:1044800000000018180000183020000000000C1078
:10449000608060100C000000000000007C007C00C8
:1044A000000000000000C02018041820C000000018
:1044B0000000182404081000300000003844444C68
:1044C00054544C40443800000030102828287C44C4
:1044D000EE00000000F8444478444444F800000032
:1044E000003C4440404040443800000000F0484454
:1044F00044444448F000000000FC445070504044E4
:10450000FC000000007E22283828202070000000D7
:10451000003C4440404E44443800000000EE444417
:104520007C444444EE000000007C10101010101079
:104530007C000000003C08080848484830000000A3
:1045400000EE444850704844E6000000007020200F
:10455000202024247C00000000EE6C6C5454444461
:10456000EE00000000EE64645454544CEC00000073
:104570000038444444444444380000000078242473
:10458000243820207000000000384444444444444F
:10459000381C000000F8444444784844E20000001D
:1045A00000344C40380404645800000000FE9210AF
:1045B000101010103800000000EE444444444444FD
:1045C0003800000000EE44442828281010000000A5
:1045D00000EE4444545454542800000000C64428BB
:1045E00010102844C600000000EE442828101010C7
:1045F00038000000007C4408101020447C000000BB
:1046000000382020202020202020380000402020BA
:1046100020101008080800000038080808080808DA
:1046200008083800001010284400000000000000B6
:104630000000000000000000000000FE0010080064
:10464000000000000000000000000038443C44442A
:104650003E00000000C0405864444444F80000009C
:104660000000003C4440404438000000000C04348A
:104670004C4444443E00000000000038447C40406C
:104680003C000000001C207C202020207C0000003A
:10469000000000364C4444443C04380000C04058FC
:1046A00064444444EE00000000100070101010102C
:1046B0007C00000000100078080808080808700056
:1046C00000C0405C48705048DC0000000030101012
:1046D000101010107C000000000000E854545454E6
:1046E000FE000000000000D864444444EE000000D6
:1046F000000000384444444438000000000000D862
:10470000644444447840E000000000364C44444493
:104710003C040E000000006C302020207C000000D3
:104720000000003C44380444780000000000207C75
:10473000202020221C000000000000CC4444444CF7
:1047400036000000000000EE44442828100000005D
:10475000000000EE4454545428000000000000CC37
:1047600048303048CC000000000000EE44242818F7
:10477000101078000000007C481020447C000000ED
:104780000008101010102010101008000010101059
:104790001010101010100000002010101010081041
:1047A000101020000000000000245800000000004D
:1047B00000000000000000000000000000000000F9
:1047C00000000000000000000000000000000000E9
:1047D00000000C000C000C000C000C000C000C0085
:1047E0000C0000000C0000000000000000000000B1
:1047F000000000001DC01DC0088008800880000067
:1048000000000000000000000000000000000000A8
:1048100000000D800D800D800D803FC01B003FC04B
:104820001B001B001B001B0000000000000000001C
:1048300004001F803180318038001E000F0003808B
:10484000318031803F0004000400000000000000BF
:10485000000018002400240018C007801E003180CA
:104860000240024001800000000000000000000043
:10487000000000000F001800180018000C001D8038
:10488000370033001D800000000000000000000021
:104890000000000007000700020002000200000004
:1048A0000000000000000000000000000000000008
:1048B00000000300030006000E000C000C000C00BA
:1048C0000C000E00060003000300000000000000C2
:1048D0000000180018000C00060006000600060084
:1048E000060006000C001C0018000000000000007C
:1048F0000000060006003FC03FC00F001F80198067
:1049000000000000000000000000000000000000A7
:104910000000000000000400040004003F800400C8
:10492000040004000000000000000000000000007F
:104930000000000000000000000000000000000077
:104940000000060004000C00080008000000000041
:104950000000000000000000000000003F80000098
:104960000000000000000000000000000000000047
:104970000000000000000000000000000000000037
:1049800000000C000C00000000000000000000000F
:1049900000C000C0018001800300030006000C007D
:1049A0000C0018001800300030000000000000006B
:1049B00000000E001B003180318031803180318059
:1049C00031801B000E00000000000000000000000D
:1049D000000006003E000600060006000600060075
:1049E000060006003FC000000000000000000000BC
:1049F00000000F00198031803180030006000C0098
:104A0000180030003F80000000000000000000009F
:104A100000003F006180018003001F0003800180CF
:104A2000018061803F0000000000000000000000E5
:104A30000000070007000F000B001B0013003300ED
:104A40003F8003000F800000000000000000000015
:104A500000001F801800180018001F00118001803E
:104A6000018021801F000000000000000000000005
:104A7000000007801C0018003000370039803180AA
:104A8000318019800F0000000000000000000000CD
:104A900000007F0043000300060006000600060039
:104AA0000C000C000C0000000000000000000000E2
:104AB00000001F003180318031801F003180318043
:104AC000318031801F000000000000000000000065
:104AD00000001E0033003180318033801D80018052
:104AE000030007003C000000000000000000000080
:104AF00000000000000000000C000C00000000009E
:104B000000000C000C00000000000000000000008D
:104B1000000000000000000003000300000000008F
:104B2000000006000400080008000000000000006B
:104B30000000000000C0030004001800600018001E
:104B40000400030000C0000000000000000000009E
:104B5000000000000000000000007FC000007FC0D7
:104B60000000000000000000000000000000000045
:104B700000000000600018000400030000C00300F3
:104B800004001800600000000000000000000000A9
:104B9000000000001F0031803180018007000C0000
:104BA0000C0000000C0000000000000000000000ED
:104BB00000000E001100210021002700290029001B
:104BC0002700200011000E0000000000000000007F
:104BD000000000003F000F000900198019801F80AD
:104BE00030C030C079E0000000000000000000008C
:104BF000000000007F003180318031803F00318033
:104C0000318031807F0000000000000000000000C3
:104C1000000000001F4030C0604060006000600085
:104C2000604030801F000000000000000000000015
:104C3000000000007F00318030C030C030C030C084
:104C400030C031807F000000000000000000000044
:104C5000000000007F803080308032003E00320053
:104C6000308030807F8000000000000000000000E5
:104C7000000000007FC03040304032003E00320073
:104C8000300030007C000000000000000000000048
:104C9000000000001E80318060806000600067C0FE
:104CA000618031801F000000000000000000000053
:104CB000000000007BC03180318031803F80318036
:104CC000318031807BC00000000000000000000047
:104CD000000000003FC006000600060006000600B7
:104CE000060006003FC000000000000000000000B9
:104CF000000000001FC00300030003000300630066
:104D0000630063003E00000000000000000000009F
:104D1000000000007BC03180330036003C003E00C4
:104D20003300318079C00000000000000000000066
:104D3000000000007E00180018001800180018403D
:104D4000184018407FC00000000000000000000074
:104D500000000000E0E060C071C07BC06AC06EC0AF
:104D600064C060C0FBE00000000000000000000024
:104D70000000000073C0318039803D80358037806D
:104D800033803180798000000000000000000000C6
:104D9000000000001F00318060C060C060C060C0C3
:104DA00060C031801F000000000000000000000013
:104DB000000000007F0031803180318031803F0071
:104DC000300030007E000000000000000000000005
:104DD000000000001F00318060C060C060C060C083
:104DE00060C031801F000CC01F8000000000000068
:104DF000000000007F003180318031803E003300B0
:104E0000318031807CE000000000000000000000E4
:104E1000000000001F803180318038001F000380B7
:104E2000318031803F0000000000000000000000E1
:104E3000000000007F804C804C804C800C000C00F7
:104E40000C000C003F00000000000000000000000B
:104E5000000000007BC031803180318031803180A2
:104E6000318031801F0000000000000000000000C1
:104E7000000000007BC0318031801B001B001B0044
:104E80000A000E000E0000000000000000000000FC
:104E900000000000FBE060C064C06EC06EC02A80ED
:104EA0003B803B80318000000000000000000000DB
:104EB000000000007BC031801B000E000E000E00C1
:104EC0001B0031807BC000000000000000000000DB
:104ED0000000000079E030C019800F0006000600D5
:104EE000060006001F800000000000000000000017
:104EF000000000003F8021802300060004000C0019
:104F0000188030803F80000000000000000000009A
:104F100000000780060006000600060006000600E6
:104F200006000600060006000780000000000000E2
:104F300030003000180018000C000C0006000300C0
:104F400003000180018000C000C0000000000000DC
:104F500000001E000600060006000600060006000F
:104F600006000600060006001E000000000000000B
:104F700004000A000A0011002080208000000000C8
:104F80000000000000000000000000000000000021
:104F90000000000000000000000000000000000011
:104FA0000000000000000000000000000000FFE022
:104FB00008000400020000000000000000000000E3
:104FC00000000000000000000000000000000000E1
:104FD00000000000000000001F00018001801F8011
:104FE000318033801DC00000000000000000000080
:104FF00000007000300030003700398030C030C011
:1050000030C0398077000000000000000000000080
:1050100000000000000000001E8031806080600001
:10502000608031801F0000000000000000000000D0
:1050300000000380018001801D80338061806180D9
:10504000618033801DC000000000000000000000EF
:1050500000000000000000001F00318060C07FC021
:10506000600030C01F800000000000000000000051
:10507000000007E00C000C003F800C000C000C004E
:105080000C000C003F800000000000000000000049
:1050900000000000000000001DC0338061806180BE
:1050A000618033801D80018001801F0000000000AE
:1050B00000007000300030003700398031803180CE
:1050C000318031807BC00000000000000000000043
:1050D00000000600060000001E0006000600060094
:1050E000060006003FC000000000000000000000B5
:1050F00000000600060000003F000300030003005C
:10510000030003000300030003003E000000000052
:105110000000700030003000378036003C003C005A
:105120003600330077C000000000000000000000DF
:1051300000001E000600060006000600060006002D
:10514000060006003FC00000000000000000000054
:1051500000000000000000007F8036C036C036C06E
:1051600036C036C076E000000000000000000000FD
:10517000000000000000000077003980318031809D
:10518000318031807BC00000000000000000000082
:1051900000000000000000001F00318060C060C0FF
:1051A00060C031801F00000000000000000000000F
:1051B00000000000000000007700398030C030C0DF
:1051C00030C039803700300030007C000000000023
:1051D00000000000000000001DC03380618061807D
:1051E000618033801D800180018007C000000000C5
:1051F00000000000000000007B801CC018001800A8
:10520000180018007F0000000000000000000000EF
:1052100000000000000000001F8031803C001F00E3
:10522000038031803F00000000000000000000000B
:1052300000001800180018007F001800180018005F
:10524000180018800F00000000000000000000009F
:105250000000000000000000738031803180318048
:10526000318033801DC000000000000000000000FD
:1052700000000000000000007BC0318031801B0076
:105280001B000E000E0000000000000000000000E7
:105290000000000000000000F1E060C064C06EC0CB
:1052A0003B803B80318000000000000000000000D7
:1052B00000000000000000007BC01B000E000E007C
:1052C0000E001B007BC0000000000000000000007A
:1052D000000000000000000079E030C01980198053
:1052E0000B000F00060006000C003E00000000004E
:1052F00000000000000000003F80218003000E003D
:10530000180030803F800000000000000000000016
:10531000000006000C000C000C000C000C00180033
:105320000C000C000C000C00060000000000000047
:105330000000060006000600060006000600060043
:10534000060006000600060006000000000000003F
:1053500000000C0006000600060006000600030020
:1053600006000600060006000C0000000000000019
:10537000000000000000000000001800248003006E
:10538000000000000000000000000000000000001D
:10539000010202030405060708090A0B0C0D0E0F93
:1053A00010105061696E745F447261775374726952
:1053B0006E675F454E20496E707574206578636531
:1053C00065647320746865206E6F726D616C206413
:1053D0006973706C61792072616E67650D00506150
:1053E000696E745F447261774C696E6520496E70B6
:1053F0007574206578636565647320746865206ED4
:105400006F726D616C20646973706C617920726178
:105410006E67650D005061696E745F44726177500C
:105420006F696E7420496E70757420657863656568
:10543000647320746865206E6F726D616C2064699E
:1054400073706C61792072616E67650D00457863D9
:10545000656564696E6720646973706C6179206248
:105460006F756E6461726965730D0058706F696E57
:1054700074203D202564202C205061696E742E57C5
:1054800069647468203D20256420200D0A2000599D
:10549000706F696E74203D202564202C2050616956
:1054A0006E742E486569676874203D20256420204D
:1054B0000D0A20006E6F6E65006D6972726F72006A
:1054C000E0540008000000202800000028410008E7
:1054D00008550008280000207834000038410008F2
:1054E0000000000001000000100000003C43000824
:1054F00007000C00B04700080B0010000F00000070
:085500000024F400000000008B
:04000005080000ED02
:00000001FF
